:020000040800F2
:1000000028A600204501000827220008F91C000846
:1000100025220008B1010008C128000800000000E6
:100020000000000000000000000000008523000820
:10003000270200080000000029220008872300088A
:100040005F0100085F0100085F010008A5220008A9
:100050005F0100085F0100085F010008310200082D
:100060005F0100085F0100085F010008B50100089A
:10007000C1010008CD0100085F010008D901000896
:100080005F0100085F0100085F0100085F010008D0
:100090005F0100085F0100085F0100085F010008C0
:1000A0005F0100085F0100085F0100085F010008B0
:1000B0005F0100085F0100085F0100085F010008A0
:1000C0005F0100085F0100085F0100085F01000890
:1000D0005F0100085F0100085F0100085F01000880
:1000E000290200085F0100085F0100085F010008A5
:1000F0005F0100085F0100085F0100085F01000860
:100100005F0100085F0100085F0100085F0100084F
:100110005F0100085F0100085F0100085F0100083F
:10012000E50100085F0100085F010008F101000817
:10013000DFF80CD000F02AF800480047F53000083E
:1001400028A600200648804706480047FEE7FEE74D
:10015000FEE7FEE7FEE7FEE7FEE7FEE7FEE7FEE777
:100160000B24000831010008D2B201E000F8012B95
:10017000491EFBD270470022F6E710B513460A4627
:1001800004461946FFF7F0FF204610BD064C074D08
:1001900006E0E06840F0010394E807009847103457
:1001A000AC42F6D3FFF7C8FFD4310008F4310008A1
:1001B000FEE70000014800F0D9B800002403002049
:1001C000014800F0D3B8000058020020014800F0B8
:1001D000CDB80000E0020020014800F0C7B80000E0
:1001E0009C020020014800F0C1B80000AC030020D0
:1001F000014800F0BBB800006803002030B590F85B
:1002000040500124AC40C56B6C6004686360436877
:10021000102B036803D099600068C26030BD9A60FB
:100220000068C16030BD70474FF4005000F07ABAEA
:10023000022000F077BA72B6FEE700002DE9F05F09
:1002400090F821100024022903D0042181630124A5
:1002500085E001680A6822F00E020A6001680A68F7
:1002600022F001020A603F4E3E4FB215DFF8F4C0A3
:10027000DFF8F090DFF8ECA0DFF8E8B0DFF8E4E0BA
:100280000168783F13011502ACF1640CA9F1500923
:10029000AAF13C0AABF1280BAEF1140E4FF4801812
:1002A000B14227D9B9420ED0614512D049451DD07F
:1002B000514518D0594518D0714501D1424615E035
:1002C000294EB14201D1012210E0274E1436B1422D
:1002D00001D110220AE0244E2836B14206D0224A2B
:1002E0003C32914201D11A4600E02A461E49091FBC
:1002F0000A602BE0B94213D0614517D0494522D09E
:1003000051451DD059451DD0714501D142461AE0D5
:10031000B14202D14FF0807215E0134EB14201D1CB
:10032000012210E0104E1436B14201D110220AE031
:100330000D4E2836B14206D00B4A3C32914201D1D3
:100340001A4600E02A46074980394A60012180F8B0
:100350002110002180F82010416B01B18847204610
:10036000BDE8F09F80000240080402402DE9F05FE4
:10037000C16B0B6801680A68046C4FF0040808FA46
:1003800004F8844D844E854FDFF814C2DFF81492D0
:10039000DFF814A2DFF814B2DFF814E218EA030F52
:1003A00065D05FEA427862D50A68920603D40A688B
:1003B00022F004020A60DFF8F0814FF480620168E5
:1003C00008F1140813011402414524D9A9420DD0A3
:1003D000B1420FD0B9421AD0614515D0494515D068
:1003E000514501D1120312E0594501D104220EE01A
:1003F000714501D140220AE06D4D1435A94206D065
:100400006B4A2832914201D11A4600E022466749E0
:10041000091F0A6029E0A94213D0B14215D0B942A0
:1004200020D061451BD049451BD0514502D14FF426
:10043000800217E0414502D14FF0806212E0594539
:1004400001D104220EE0714501D140220AE0584D4D
:100450001435A94206D0564A2832914201D11A4693
:1004600000E022464B4908394A60C16A71E04FF00A
:10047000020808FA04F818EA030F70D05FEA8278DD
:100480006DD50A68920606D40A6822F00A020A604C
:10049000012180F82110DFF810814FF4007201680B
:1004A00008F1140813011402414524D9A9420DD0C2
:1004B000B1420FD0B9421AD0614515D0494515D087
:1004C000514501D1120312E0594501D102220EE03B
:1004D000714501D120220AE0354D1435A94206D0DC
:1004E000334A2832914201D11A4600E022462F4970
:1004F000091F0A6029E0A94213D0B14215D0B942C0
:1005000020D061451BD049451BD0514502D14FF445
:10051000001217E0414502D14FF0007212E0594538
:1005200001D102220EE0714501D120220AE0204DC6
:100530001435A94206D01E4A2832914201D11A46EA
:1005400000E02246134908394A60002180F8201053
:10055000816A00291CD0BDE8F05F0847FFE7082545
:10056000A5401D4214D0120712D50A6822F00E02CF
:100570000A6090F84020C36B012101FA02F25A6030
:10058000816380F82110002180F82010016BE0E7E2
:10059000BDE8F09F080002401C000240300002400D
:1005A00044000240580002406C000240080402402F
:1005B0001C04024030B560B11A4B01681422994204
:1005C00009D2194B0B44B3FBF2F292000264174AB2
:1005D0000AE0012030BD134B5B420B44B3FBF2F247
:1005E000920002640F4A083AC263022280F8212076
:1005F0000A6843F6F0739A43F0E901342343D0E9E3
:1006000002452C43234304692343446923438469FB
:10061000234313430B60002141630122427701779A
:10062000084630BD08040240F8FFFDBF000002404C
:1006300070B5044690F82000002501280CD0012058
:1006400084F8200094F821600020012E06D084F860
:1006500020000225284670BD022070BD022684F8C5
:100660002160A0632068066826F001060660204627
:10067000FFF7C4FDE06A00282068016802D041F05D
:100680000E0106E021F0040101602068016841F0DC
:100690000A0101602068016841F001010160D9E7A9
:1006A00070B5044600F04CF90546601C02D00448C1
:1006B0000078044400F044F9401BA042FAD370BD16
:1006C0008400002070B54FF400560025124CB04253
:1006D00010D10A20FFF7E4FF3146104800F026F958
:1006E000002806D12078401CC0B22070032800D911
:1006F000257070BD0228FCD10A20FFF7D1FF02212E
:10070000074800F013F90028F3D1E068401CE060CE
:100710000228EEDDE56070BD000000200010014001
:1007200000080140044910B50A68024202D008607E
:10073000FFF7C8FF10BD0000140401402DE9F84F79
:10074000DFF8C091002409F1040A0AF1040B2346E2
:100750004FF00F080BF1040ECCE00127A7403A4000
:10076000BA4272D1DFF8A0C14D68A5EB0C06654511
:100770002BD00DDC032D34D005DC35B3012D19D081
:10078000022D2FD11BE0112D16D0122D2AD119E0E8
:10079000B6F5881F19D006DCB6F5803F15D0B6F542
:1007A000801F1FD111E0B6F5001F0ED0B6F5041F53
:1007B00018D10AE0CB6815E0CB681B1D12E0CB68AE
:1007C00008330FE0CB680C330CE08B682BB1012BA6
:1007D0004FF0080303D0476104E0042302E00761FF
:1007E00000E00023FF2A01D8064601E000F10406DC
:1007F0004FEA840501D9A5F12005376808FA05FC00
:1008000027EA0C0703FA05F547EA050737604D6844
:10081000ED006ED53D4DAE6946F00106AE61AD69A5
:1008200024F0030605F001050095394D7719BE68DF
:10083000A5072D0F08FA05FC26EA0C06DFF8D4C040
:10084000604503D14FF0000C25E052E0DFF8C8C04E
:10085000604502D14FF0010C1DE0DFF8C0C06045DB
:1008600002D14FF0020C16E0DFF8B4C0604502D1AF
:100870004FF0030C0FE0DFF8ACC0604502D14FF041
:10088000040C08E0DFF8A0C0604502D14FF0050C71
:1008900001E04FF0060C0CFA05FC4CEA060CC7F818
:1008A00008C04D68D9F80060ED034D4601D51643E8
:1008B00000E096432E604D68DAF80060AD035546BF
:1008C00001D5164300E096432E604D68DBF80060CA
:1008D000ED025D4601D5164300E096432E604D685B
:1008E000DEF80060AD02754601D5164300E0964380
:1008F0002E60641C0A6832FA04F57FF42EAFBDE85E
:10090000F88F0000000401400000111000100240A8
:100910000000014000080140000C014000100140AF
:100920000014014000180140001C0140806808408C
:1009300000D0012070470AB1016170470904FBE74C
:1009400001488068704700008400002002488168E8
:10095000027811448160704784000020074810B578
:10096000016841F010010160032000F075F80020DB
:1009700000F006F800F024F8002010BD002002402E
:1009800070B50D4D04464FF47A712878B1FBF0F044
:100990000A490968B1FBF0F000F02FFD48B9102CAE
:1009A00007D200222146501E00F036F800206C606D
:1009B00070BD012070BD0000840000209000002068
:1009C0000C4808B5816941F001018161816901F03C
:1009D00001010091C16941F08051C161C0690649BE
:1009E00000F080500090486820F0E06040F0007017
:1009F000486008BD0010024000000140002809DBEB
:100A000000F01F02012191404009800000F1E02028
:100A1000C0F8001170470000F0B40E4B1B68C3F320
:100A20000223C3F10704042C00D904241D1D072D43
:100A300001D2002300E0DB1E012606FA04F56D1E3C
:100A40000D409D409E40761E164045EA0601F0BCD2
:100A500001F092BF0CED00E0064A00F007011068BB
:100A60004FF6FF03184040EA012003490843106095
:100A7000704700000CED00E00000FA05014901207C
:100A80000862704700000E4210B501462BA086B0E8
:100A90001DC88DE81D002DA02D4C0068049000207D
:100AA00004292FD00BDC01292FD0022928D100F0F6
:100AB00065F96168C1F38131491C49001EE00829CC
:100AC00020D010291CD161682268D20118D5C1F349
:100AD0008342C9031DF8020009D5616804AAC1F365
:100AE0004041515C1B4AB2FBF1F1484301E01A4915
:100AF00048436168490203D440000321B0FBF1F090
:100B000006B010BD00F04AF9FAE7226AC2F30121EB
:100B1000012903D1920701D5C803F1E7022905D1C4
:100B2000626A920702D549F64040E9E70329E7D116
:100B300021688903E4D54FF22440E1E7020304056C
:100B4000060708090A0B0C0D0E0F10100102000019
:100B50000010024000127A0000093D002DE9F84320
:100B600004460078344FC00752D0F8690025C00011
:100B700008D4F86940F08050F861F869012500F068
:100B8000805000902D480168C90511D40168804645
:100B900041F480710160FFF7D3FE064604E0FFF7E1
:100BA000CFFE801B642822D8D8F80000C005F6D5F7
:100BB000386A10F4407020D0A18801F4407181425D
:100BC0001BD0386A1E49012220F440700A600022BE
:100BD0000A603862C00710D0FFF7B2FE064641F245
:100BE000883807E0FFF7ACFE811B414502D903209E
:100BF000BDE8F883386A8007F4D5386A616820F464
:100C00004070084338621DB1F86920F08050F861E7
:100C10002078800705D57868A16820F44040084313
:100C200078602078C00605D57868616920F4800076
:100C3000084378600020DBE70010024000700040AD
:100C4000400442422DE9F0470D46040067D0DFF82A
:100C50001881D8F8000000F00700A8420CD2D8F89C
:100C6000001021F007012943C8F80010D8F800004F
:100C700000F00700A84252D120683C4E810712D5EF
:100C8000400703D5706840F4E0607060207800078A
:100C900003D5706840F4605070607068A16820F0FF
:100CA000F000084370602078C00727D060680128F2
:100CB00010D03168022810D0890700292FDA716816
:100CC00021F0030101437160FFF73AFE074641F24C
:100CD00088390CE031688903EFE78901EDE7FFF718
:100CE0002FFEC11B494502D90320BDE8F08770687B
:100CF000616800F00C00B0EB810FF0D1D8F8001063
:100D0000404601F00701A9420BD9016821F0070113
:100D100029430160006800F00700A84201D00120CB
:100D2000E3E72078400705D57068E16820F4E060CB
:100D3000084370602078000706D57068216920F4A8
:100D4000605040EAC100706000F028F87168084AFD
:100D5000C1F30311515CC8400649086006480068A9
:100D6000FFF70EFE0020C0E7002002400010024006
:100D7000BC3100089000002088000020044805498C
:100D800000684968044AC1F3C221515CC8407047F9
:100D90009000002000100240CC31000812A085B065
:100DA0000FC88DE80F0014A0144B00680490596818
:100DB000134801F00C02042A10D0082A0ED1C1F306
:100DC0008342C9031DF802000AD5596804AAC1F379
:100DD0004041515C0A4A5043B0FBF1F005B0704706
:100DE00008494843FAE7000002030405060708091A
:100DF0000A0B0C0D0E0F1010010200000010024033
:100E000000127A0000093D002DE9F84F04006FD070
:100E10002078BE4DC00747D06868C0F38100012824
:100E200007D06868C0F38100022809D16868C00350
:100E300006D52868800337D560680028E7D033E0FE
:100E40006068B0F5803F0BD010B1B0F5A02F11D085
:100E5000286820F480302860286820F4802002E090
:100E6000286840F480302860606888B1FFF768FD2A
:100E7000064609E0286840F480202860F0E7FFF784
:100E80005FFD801B642873D828688003F7D50BE0CA
:100E9000FFF756FD064604E0FFF752FD801B64286D
:100EA000F1D828688003F7D42078DFF864828007BF
:100EB0004FF0010A4FF0000939D5686810F00C0FA7
:100EC00007D06868C0F38100022809D16868C003B0
:100ED00006D42868800714D52069012808D110E0BD
:100EE0002069B0B1C8F800A0FFF72AFD064605E06A
:100EF00007E1FFF725FD801B0228C4D8286880077A
:100F0000F7D52868616920F0F80040EAC100286040
:100F10000DE0C8F80090FFF713FD064604E0FFF768
:100F20000FFD801B022823D828688007F7D420787B
:100F300000072CD57748A169D9B1C0F800A0FFF708
:100F4000FFFC064604E0FFF7FBFC801B02280FD8DD
:100F5000686A8007F7D570484FF4FA510068B0FB13
:100F6000F1F0009000BF0098411E0091FAD20EE00F
:100F70007CE0C0F80090FFF7E3FC064604E0FFF7D2
:100F8000DFFC801B022871D8686A8007F7D42078BC
:100F900040075BD5E8690027C00008D4E86940F045
:100FA0008050E861E869012700F0805000905B48BC
:100FB0000168C90511D40168834641F4807101605C
:100FC000FFF7BEFC064604E0FFF7BAFC801B64286E
:100FD0004CD8DBF80000C005F6D5E06801280AD03F
:100FE00008B1052813D0286A20F001002862286A79
:100FF00020F0040002E0286A40F001002862E06866
:1010000041F2883B88B1FFF79BFC064609E0286A5D
:1010100040F004002862EEE7FFF792FC811B59457F
:101020005BD8286A8007F7D50BE0FFF789FC0646F6
:1010300004E0FFF785FC811B59454ED8286A8007DC
:10104000F7D41FB1E86920F08050E861E069A8B3E7
:101050006968C1F38101022946D00228484606D0BA
:10106000C8F86000FFF76CFC044639E035E04746FD
:10107000C8F86000FFF764FC064604E0FFF760FC78
:10108000801B022829D828688001F7D4206AB0F58F
:10109000803F05D16868A16820F40030084368608B
:1010A000D4E908010843696821F4741108436860B1
:1010B000C7F860A0FFF744FC044605E023E0FFF713
:1010C0003FFC001B022808D828688001F7D51AE0E9
:1010D000FFF736FC001B022802D90320BDE8F88F79
:1010E00028688001F4D40EE00128F7D06868226AED
:1010F00000F48031914204D1616A00F4701088429A
:1011000001D00120EAE70020E8E7000000100240DB
:1011100000004242800442429000002000700040E3
:101120007047704710B5044600680168C90717D0BA
:101130004168C90714D040684007204607D5FFF72B
:10114000F0FF21686FF004004860042002E0FFF720
:10115000E7FF012060742068416821F001014160CF
:1011600010BD000070B5040003D0607C002610B1F3
:1011700005E0012070BD2674204600F043F80220EF
:101180006074204600F01CF9042578BB204601F06D
:1011900055F858BB2068416821F007014160A068FC
:1011A00020B11748016821F0010101601448001FB7
:1011B0000168A26821F46071114301606068411CFC
:1011C00004D10120FFF760FC80B1401E21688A68CD
:1011D00022F00F0242EA10428A602168CA6860F376
:1011E0000F02CA60204601F043F808B16574C0E7F9
:1011F000E67301206073A0736074002070BD00006E
:10120000306C004008B500680D49884217D1FFF7DF
:1012100035FC0C48C16941F00061C161C0690A49EF
:1012200000F00060009001200860002211460320B9
:10123000FFF7F2FBBDE808400320FFF7DFBB08BD66
:1012400000280040001002403C0442422DE9F041D9
:101250000D4604003BD0C5B3207C01283AD04FF0A6
:10126000010884F8108002206074E87872B300F0FE
:10127000DCFFE073687800F0D8FF6073A87800F0B6
:10128000D4FFA073C2B2617BE07B01F028F8207329
:101290002870204601F013F84FF46161B0FBF1F1C2
:1012A000002518292DD91822B1FBF2F1A1EB01116B
:1012B00001EB4101C1EB011100EBC11631462046A3
:1012C00001F04CF80427C8B90BE000E004E001206D
:1012D000BDE8F0810220FBE7E07368786073A878CE
:1012E000CFE7204600F0E4FF411C0AD0B04208D20C
:1012F00006490144204601F01DF810B167742574B9
:10130000E5E784F8118025740020E1E780510100B1
:101310002DE9F0410D46040024D01DB3207C0128A6
:1013200023D04FF0010884F8108002206074F2B1DD
:10133000287800F07AFF4FF4616100FB01F66878CD
:1013400000F073FFC0EB001006EB8006A87800F0F9
:101350006CFF35182946204601F000F800260427C6
:1013600018BB10E00120BDE8F0810220FBE72978DE
:101370004FF4616041436878C0EB001001EB8000DE
:10138000A9784518E6E72068416821F00501416029
:10139000204600F08DFF411C0AD0A84208D2074920
:1013A0000144204600F0C6FF10B167742674D9E7E7
:1013B00084F8118026740020D5E7000080510100D8
:1013C00070B504000AD02068416821F0080141602E
:1013D000FFF7B6FA05464FF47A7608E0012070BDB3
:1013E000FFF7AEFA401BB04201D9032070BD206860
:1013F00040680007F4D5002070BD10B5401EB0F164
:10140000807F01D3012010BD4FF0E02460610F21E7
:10141000601701F0B1FA0020A061072020610020D0
:1014200010BD10B590F83C20012A22D0012280F88E
:101430003C20CA688C6822F4407222434C6822F433
:10144000806222430C6822F4006222430C6922F479
:10145000805222434C6922F400522243C96900237E
:1014600022F480420A4301684A6480F83C3000203C
:1014700010BD022010BD000070B590F83C20012A7C
:101480002CD0012580F83C50022280F83D200268D3
:101490005368946823F070060B6833435360104B15
:1014A00002689A420ED00F4B9A420BD0B2F1804F95
:1014B00008D00D4B9A4205D00C4B9A4202D00C4BEF
:1014C0009A4204D1496824F080031943916080F85E
:1014D0003D50002180F83C10084670BD022070BDD0
:1014E000002C01400034014000040040000800408E
:1014F000000C004010B5040003D094F83D0010B17A
:1015000007E0012010BD002084F83C00204600F0D8
:101510001FF8022084F83D00211D206800F076FFAE
:10152000012084F8460084F83E0084F83F0084F8E7
:10153000400084F8410084F8420084F8430084F8B5
:10154000440084F8450084F83D00002010BD0000F0
:1015500038B5044600681249884220D11148C16953
:1015600041F00201C161C069104D00F0020000901D
:101570000D4828601020686000208021C5E9020124
:10158000890029618900C5E90510E8612846FFF74F
:1015900011F808B1FEF74FFE256325626C6238BD75
:1015A000000400400010024030000240E002002031
:1015B00070B5044690F83C00012817D0012584F846
:1015C0003C50022084F83D002068826822F07702B7
:1015D00022F47F4282600868502830D00DDC202839
:1015E0004DD005DC98B310283BD148E0022070BDF7
:1015F000302844D0402834D139E0602828D07028E1
:1016000006D0B0F5805F2CD0B0F5005F29D10AE09C
:10161000CB68D1E90121206800F0C0FF2068816813
:1016200041F0770109E0CB68D1E90121206800F0A1
:10163000B5FF2068816841F48041816011E0CA688B
:101640004968206801F07EF85021206807E016E024
:10165000CA684968206801F086F86021206800F0B7
:10166000A7FF84F83D50002084F83C0070BDCA6894
:101670004968206801F066F840212068EFE7226899
:1016800001461046EBE7704770B586B00021009127
:101690000191029103913E4A3C4C01689515022349
:1016A0003C48A1420BD1916941F0040191619169DB
:1016B000CDE9005301F00401CDE9033152E0B1F16D
:1016C000804F10D0344E354CB1422AD1906940F051
:1016D000080090619069009300F008000193CDE943
:1016E000033069462DE0916941F0040191619169EF
:1016F000039301F0040104914FF40041CDE900137C
:101700006946FFF71BF82649486820F4407040F00E
:10171000E06040F48070486006B070BDFFF70EF8DE
:10172000FAE7204EB1420ED1906940F00800906176
:101730009069694600F0080004904020CDE900035C
:1017400003932046EAE7184CA1420DD1916941F07C
:10175000040191619169039301F004010491012155
:10176000CDE900136946D9E710488142D4D1906988
:1017700040F0100090619069CDE9005300F0100036
:10178000CDE9033069460A48C8E70000002C014053
:10179000001002400008014000040040000C01401D
:1017A0000000014000080040000C004000340140EF
:1017B0000010014070B5044690F83C000D46012829
:1017C0000AD0012084F83C0042B1042A18D0082A2B
:1017D0002AD00C2A4DD139E0022070BD206800F0DB
:1017E000EFFE2068816941F008018161206881690C
:1017F00021F004018161206881692A69114311E0A7
:10180000206800F00DFF2068816941F4006181616A
:101810002068816921F480618161206881692A6979
:1018200041EA0221816124E0206800F02FFF206856
:10183000C16941F00801C1612068C16921F004015A
:10184000C1612068C1692A69114311E0206800F074
:1018500051FF2068C16941F40061C1612068C1691C
:1018600021F48061C1612068C1692A6941EA0221CD
:10187000C161002084F83C0070BD10B5040003D0A5
:1018800094F83D0010B107E0012010BD002084F85D
:101890003C00204600F01EF8022084F83D00211D87
:1018A000206800F0B3FD012084F8460084F83E0073
:1018B00084F83F0084F8400084F8410084F8420036
:1018C00084F8430084F8440084F8450084F83D001F
:1018D000002010BDF8B510210446DFF81CC10568D2
:1018E0000020464F80224B01CE01654513D1BD69D2
:1018F00045F40065BD61BD69414F05F40065009583
:10190000404D05F1080C8CE84D00A861E8612846BF
:1019100045E065626DE0B5F1804F17D0DFF8E8C0B3
:10192000654527D1FD6945F00405FD61FD69344F2A
:1019300005F004050095334D143FCC3505F1080C36
:101940008CE84D00A861E861284628E0FD6945F073
:101950000105FD61FD692A4F05F001050095294D3E
:101960003C37443505F1080C8CE84D00A861E8616E
:10197000284614E0DFF894C0654519D1FD6945F0AB
:101980000805FD61FD69224F05F008050095214D10
:1019900005F1080C8CE84D00A861E8612846C5E90E
:1019A0000071FEF707FE0028B3D0FEF744FCB0E755
:1019B000DFF864C065451DD1BD6945F40055BD61C2
:1019C000BD69134F05F400550095124D503F443545
:1019D00005F1080C8CE84D00A861E861C5E90071CB
:1019E0002846FEF7E7FD08B1FEF725FCE5626C62CC
:1019F00025626C62F8BD0000002C0140001002401E
:101A00001C0002405802002000080040000C00406A
:101A10005804024068030020003401402DE9F041E1
:101A2000184F002406462546A7F1080857F8240059
:101A3000B0420ED118F80410D1B104291BD00068AF
:101A400008291BD0056418F8041057F8240000F08A
:101A5000F3F8641CE4B2052CE8D30B4886420FD19E
:101A60000068C563BDE8F0410821074800F0E4B80C
:101A700000684563E7E700688563E4E7C563E2E77C
:101A8000BDE8F0811C00002010020020704700001B
:101A90002DE9F04116460D00044611D0042D12D058
:101AA000082D13D094F8410002287DD08DB1042D6B
:101AB00012D0082D13D094F84100012812D0A3E0D1
:101AC00094F83E00F0E794F83F00EDE794F840000A
:101AD000EAE794F83E00F0E794F83F00EDE794F869
:101AE0004000EAE70EB9002B5FD1022085B1042D3A
:101AF00011D0082D12D084F8410047484749484A80
:101B00007DB1042D1FD0082D5FD00C2D2DD16EE09E
:101B100084F83E00F1E784F83F00EEE784F84000E7
:101B2000EBE7676AB862606AC162606A3146026365
:101B30002268606A3432FEF77BFDB0BB2068C16862
:101B400041F4007110E0A76AB862A06AC162A06A9D
:101B5000314602632268A06A3832FEF769FD20BB75
:101B60002068C16841F48061C16001222946206873
:101B700000F092FC2B4920682B4A884201D0904209
:101B800003D1436C43F4004343642068884210D07F
:101B900090420ED0B0F1804F0BD02449884208D03B
:101BA0002349884205D001E00DE02DE0214988421B
:101BB00004D1816801F00701062903D0016841F0D2
:101BC000010101600020BDE8F081E76AB862E06AC7
:101BD000C162E06A314602632268E06A3C32FEF785
:101BE00027FD88B92068C16841F40061BCE7276B14
:101BF000B862206BC162206B314602632268206BA1
:101C00004032FEF715FD08B10120DCE72068C1680D
:101C100041F48051A8E70000B32400081125000812
:101C200049250008002C0140003401400004004018
:101C300000080040000C004070B5044600680D002C
:101C400006D0042D0AD0082D3DD00C2D0DD140E03A
:101C5000C16821F40071C160606A04E0C16821F4C8
:101C60008061C160A06AFEF7E9FA00222946206877
:101C700000F012FC1E4941F21112206893108842B4
:101C800002D01C49884209D1016A114206D1016A79
:101C9000194203D1416C21F4004141642068016A7A
:101CA000114206D1016A194203D1016821F00101F4
:101CB000016001209DB1042D14D0082D15D084F8A9
:101CC0004100002070BDC16821F40061C160E06A7C
:101CD000C9E7C16821F48051C160206BC3E784F873
:101CE0003E00EEE784F83F00EBE784F84000E8E7C9
:101CF000002C014000340140FEE710B5024640F2DE
:101D000091142146EF2000F09FFE2146BDE81040CF
:101D10004FF40002EF2000F06FBE0000214808B52C
:101D2000416941F001014161416901F00101009106
:101D3000416941F0020141614069002200F0020066
:101D4000009005210B20FEF767FE0B20FEF756FEE4
:101D5000002205210C20FEF75FFE0C20FEF74EFE50
:101D6000002205210D20FEF757FE0D20FEF746FE4E
:101D7000002205210F20FEF74FFE0F20FEF73EFE4A
:101D8000002205213820FEF747FE3820FEF736FEF8
:101D9000002206213B20FEF73FFEBDE808403B2025
:101DA000FEF72CBE001002402DE9F04186B0002461
:101DB00039480094019402940394816941F0100120
:101DC0008161816901F010010491816941F0200174
:101DD0008161816901F020010491816941F0040170
:101DE0008161816901F004010491816941F0080178
:101DF00081618069294F00F0080004900022F021E1
:101E00003846FEF798FDDFF8988000221021404602
:101E1000FEF791FD42F20200009022480126CDE932
:101E2000010669464046FEF789FCF0200090022535
:101E3000CDE90165694638460395FEF77FFC102021
:101E40000090CDE90165694640460395FEF776FCB2
:101E50004FF47040CDE90004694613480294FEF740
:101E60006DFC4020CDE90004694640460294FEF72F
:101E700065FC002201210720FEF7CEFD0720FEF7BA
:101E8000BDFD002201212820FEF7C6FD2820FEF717
:101E9000B5FD06B0BDE8F081001002400008014029
:101EA0000010014000002110000C01401CB500246E
:101EB00017480094154901940160611EC0E901149E
:101EC000FFF750F908B1FEF7B6F98DF800408DF82C
:101ED00001408DF80240012269460D48FFF718FACB
:101EE00008B1FEF7A8F901208DF804008DF805006F
:101EF0008DF8060002468DF8074001A90448FFF757
:101F0000A5F9002801D0FEF796F91CBD0028004075
:101F10009400002010B592B000240F941C2108A852
:101F20001094FEF728F920216846FEF724F91F488F
:101F30001D49C0E900145921C0E90241046144610E
:101F40008461FFF79AFC08B1FEF775F90F940FA9A9
:101F500016481094FFF790FA08B1FEF76CF960206C
:101F6000CDE908040A940B940C940D94002208A95E
:101F70000E480E94FFF71EFC08B1FEF75CF90094C2
:101F80004FF40050CDE90440029401940394694653
:101F900006480794FFF745FA08B1FEF74CF90348E5
:101FA000FFF772FB12B010BD002C0140A80000200A
:101FB00010B58AB0002407941C2168460894FEF7E7
:101FC000DAF815484FF08041C0E900145921C0E902
:101FD000024104618461FFF750FC08B1FEF72BF960
:101FE000079407A90C480894FFF746FA08B1FEF7D2
:101FF00022F96020CDE900040294002269460648D7
:102000000494FFF7D7FB08B1FEF715F90248FFF774
:102010003BFB0AB010BD0000F000002010B58EB0F0
:1020200000240794089409940A940B941C21684690
:102030000C94FEF7A0F81D481B49C0E90014592173
:10204000C0E9024104618461FFF754FA08B1FEF768
:10205000F2F84FF48050079007A91448FFF7A8FA48
:1020600008B1FEF7E8F81148FFF707FC08B1FEF7E2
:10207000E2F80B940BA90D480C94FFF7FDF908B199
:10208000FEF7D9F86020CDE9000402940C226946DD
:1020900006480494FFF78EFB08B1FEF7CCF803481E
:1020A000FFF7F2FA0EB010BD000400403801002026
:1020B00010B58AB0002407941C2168460894FEF7E6
:1020C0005AF815481349C0E900145921C0E90241E2
:1020D00004618461FFF7D1FB08B1FEF7ACF8079407
:1020E00007A90D480894FFF7C7F908B1FEF7A3F850
:1020F0006020CDE900040294002269460648049459
:10210000FFF758FB08B1FEF796F80348FFF7BCFA53
:102110000AB010BD000800408001002010B58AB050
:10212000002407941C2168460894FEF724F81548FB
:102130001349C0E900145921C0E9024104618461D6
:10214000FFF79BFB08B1FEF776F8079407A90D4847
:102150000894FFF791F908B1FEF76DF86020CDE91A
:10216000000402940022694606480494FFF722FB0B
:1021700008B1FEF760F80348FFF786FA0AB010BD11
:10218000000C0040C801002010B592B000240F944C
:102190001C2108A81094FDF7EEFF20216846FDF7EA
:1021A000EAFF1F481D49C0E900145921C0E9024156
:1021B000046144618461FFF760FB08B1FEF73BF8FE
:1021C0000F940FA916481094FFF756F908B1FEF7BF
:1021D00032F86020CDE908040A940B940C940D9415
:1021E000082208A90E480E94FFF7E4FA08B1FEF79A
:1021F00022F800944FF40050CDE904400294019479
:102200000394694606480794FFF70BF908B1FEF7F7
:1022100012F80348FFF738FA12B010BD003401403D
:1022200010020020FEE7FEE77047010901EB810183
:1022300000F00F0000EB4100C0B2704770B50546DA
:10224000FEF77EFB04464FF47A7606E0FEF778FB55
:10225000001BB04201D9032070BD28684068800689
:10226000F4D52868416841F010014160002070BD3C
:1022700070B505460068416821F010014160FEF725
:102280005FFB04464FF47A7606E0FEF759FB001B2D
:10229000B04201D9032070BD286840688006F4D59B
:1022A000002070BD0148FEF73DBF000094000020F3
:1022B0000068016A406A80B240EA014070470068E5
:1022C00081698AB2C1698BB2816989B28A4203D0BD
:1022D000C06961F31F40704743EA02407047F0B5A0
:1022E0006426C1EBC1030925B700072403EB0113E2
:1022F0000329B3FBF5F100F5FA60114401440AD259
:10230000401EB0FBF6F201EB9001B0FBF7F0891A2A
:102310000844001D08E0B0FBF6F201EB9001B0FBB1
:10232000F7F0891A0844801CB0FBF4F104FB11009B
:10233000C0B2F0BD70B50D4606460024FFF77EFF23
:1023400048B93168280C08623168A8B24862304642
:10235000FFF78EFF00B10124204670BD70B50D4619
:1023600006460024FFF76AFF48B93168280C8861E7
:102370003168A8B2C8613046FFF77AFF00B1012486
:10238000204670BD7047FEF7E1BA70B596B02821BF
:102390006846FDF7F0FE14210AA8FDF7ECFE1821AF
:1023A0000FA8FDF7E8FE0920012400904FF48030CB
:1023B000002504940694CDE901050226CDE90760C5
:1023C0004FF4E01009906846FEF71EFD08B172B6A2
:1023D000FEE70F20CDE90A064FF48060CDE90C50EE
:1023E00002210AA80E95FEF72DFC08B172B6FEE791
:1023F0004FF40070CDE90F400FA8FEF7AFFB0028A7
:1024000001D072B6FEE716B070BD7047F0B5026835
:102410001C4D1D4E1D4FDFF878C01E4B4FF0804EF7
:10242000A84209D0984207D0704505D0B04203D0E9
:10243000B84201D0604503D122F070044A682243BB
:10244000A84209D0984207D0704505D0B04203D0C9
:10245000B84201D0604503D122F44074CA682243D7
:102460004C6922F08002224302608A68C2620A68D4
:102470008262A84201D0984201D109690163012119
:102480004161F0BD002C0140000400400008004004
:10249000000C00400034014010B501F01F01012381
:1024A000046A8B409C430462036A8A4013430362BC
:1024B00010BD10B5446A0121626A824205D12177BC
:1024C0008069F8B984F83E101CE0A26A824206D105
:1024D000022222778069A8B984F83F1012E0E26AEC
:1024E000824206D104222277806958B984F84010CC
:1024F00008E0226B824205D108222277806908B960
:1025000084F841102046FFF789FA0020207710BD9B
:1025100010B5446A616A814201D101200DE0A16ACF
:10252000814201D1022008E0E16A814201D1042008
:1025300003E0216B814201D1082020772046FFF77C
:10254000A5FA0020207710BD10B5446A0121626A07
:10255000824203D1217784F83E1019E0A26A8242B8
:1025600004D10220207784F83F1011E0E26A824211
:1025700004D10420207784F8401009E0226B8242C5
:1025800004D10820207784F8411001E084F83D1040
:102590002046FFF778F80020207710BD10B584683A
:1025A00042EA032224F47F440A432243826010BD9E
:1025B000826822F070020A4342F00701816070478E
:1025C000F0B5026A22F001020262026A436884697D
:1025D000114E24F073050C68104F2C4322F00205B5
:1025E0008A682A43B04201D0B84205D122F00805DA
:1025F000CA682A4322F00402B04201D0B84205D191
:102600004D6923F440731D438B692B434360846100
:10261000496841630262F0BD002C01400034014072
:10262000F0B5026A22F010020262026A436884690D
:102630000D6824F4E64444EA05248D6822F0200263
:1026400042EA05120F4D104EA84201D0B04206D109
:10265000CF6822F0800242EA071222F04002A8422C
:1026600001D0B04207D14D6923F4406343EA8503AA
:102670008D6943EA8503436084614968816302622E
:10268000F0BD0000002C014000340140F0B5026AAA
:1026900022F480720262026A4368C46922F4007202
:1026A00024F073050C68124E2C438D6842EA052213
:1026B0000E4DA84201D0B04206D1CF6822F400628C
:1026C00042EA072222F48062A84201D0B04207D138
:1026D0004D6923F4405343EA05138D6943EA05131A
:1026E0004360C4614968C1630262F0BD002C0140CF
:1026F0000034014030B5026A22F480520262036A5B
:102700004268C4690D6824F4E64444EA05248D68EF
:1027100023F4005343EA0533084DA84202D0084D84
:10272000A84204D14D6922F4804242EA85124260F7
:10273000C46149680164036230BD0000002C01409F
:102740000034014010B5046A036A23F001030362F8
:10275000836923F0F00343EA021324F00A020A43D8
:102760008361026210BD10B5036A23F01003036297
:102770008469036A24F4704444EA023223F0A0031B
:1027800043EA01118261016210BD00002DE9F041B0
:102790000A4640F251142146002000F055F94FF44A
:1027A00000022146002000F027F9094D002405F120
:1027B0001C0642F29957295D56F824003B46054A0B
:1027C000FFF766F9641C052CF5DBBDE8F08100001D
:1027D0003C000020340A00202DE9F05F344E8B4687
:1027E0008046002440F291154FF4000906F11C07C1
:1027F00042F2995A5A462946002000F025F94A46E5
:102800002946002000F0F8F871795346294A786982
:10281000FFF73EF96420FDF743FF641C012CE9DB60
:1028200000222946104600F00FF94A4629460020AA
:1028300000F0E2F81E4C08F0FF00083C59462279EF
:1028400000F018FC6068022830D0401C60605846D8
:10285000FFF753FA164C184D34340122208981B207
:102860002846FEF768F8B1785346124AB868FFF771
:102870000FF92088002281B21048FEF75CF8A08989
:10288000002281B22846FEF756F8208A002281B243
:102890002846FEF750F8A088002281B22846FEF7AD
:1028A0004AF8BDE8F05F6420FDF7FABE0020CDE7EE
:1028B0003C000020340A0020000C014000100140C0
:1028C000FEE700002DE9F04140212748FEF72EF8F1
:1028D000264E0125264FA6F11404012806D13560A5
:1028E0003878012802D12068401C2060DFF88480FD
:1028F0004FF400514046FEF719F8012806D17560E3
:10290000387B012802D16068401C60604FF40041B0
:102910004046FEF70BF8012806D1B560387E012845
:1029200002D1A068401CA0604FF480414046FDF7F2
:10293000FDFF012807D1F56097F82400012802D196
:10294000E068401CE0604FF480514046FDF7EEFF28
:10295000012807D1356197F83000012802D120699C
:10296000401C2061BDE8F0810010014010A1002052
:1029700098A00020000C01400907090E002804DB84
:1029800000F1E02080F80014704700F00F0000F123
:10299000E02080F8141D704702E008C8121F08C12B
:1029A000002AFAD170477047002001E001C1121FD0
:1029B000002AFBD170470000064810B50021816451
:1029C00080F8541000F096FA00F0ECFBBDE81040DF
:1029D00000F0AABA98A0002010B5002240F291148D
:1029E0002146104600F030F82146BDE810404FF473
:1029F00000220020AFF300802DE9F043114E2D2777
:102A0000A6F244694FF0190C18E059F82050002341
:102A100000EB400422FA03F815EA080F03EBC408A0
:102A200006EB880802D0C8F8047001E0C8F804C0BA
:102A30005B1C9BB2182BEDD3401C80B28842E4D3C0
:102A4000BDE8F083340A0020044B03E043F8202063
:102A5000401C80B28842F9D370470000F003002088
:102A60002DE9F74FDFF8E481DFF8E4A1934698F809
:102A700054000AF11C0942F29957062830D140F25D
:102A8000511421460020019AFFF7DEFF4FF40002A7
:102A900021460020FFF7B0FF002455464E46295D31
:102AA00056F824003B466B4AFEF7F2FF641CE4B282
:102AB000052CF4D34FF47A70FDF7F2FD00F034FAF0
:102AC000FFF78AFFFFF778FF00243B46295D56F8A1
:102AD0002400604AFEF7DCFF641CE4B2052CF4D34A
:102AE0005B4D00205C4A083D52F82010002901DDB2
:102AF000012100E000212B68401C1944C0B229606C
:102B00000528F1D3002400F08BF9641CE4B2042CF6
:102B1000F9D94646D6E91201421A40F2A9100BFB38
:102B200000F10020B2EB410F98F8611001D809B90B
:102B300014E009B186F8610086F8540096F8570051
:102B400086F86000483600F0EFF9FFF745FF00F027
:102B5000D1F900F027FB706846F84809B3463C4EAF
:102B6000002434364FF40008002240F29117394611
:102B70001046FFF769FF424639460020FFF73CFF49
:102B800004EB44011BF8210020B101280FD00228DA
:102B90002FD116E0FFF720FF042C04D036F82400D4
:102BA000002281B222E0308A002281B229E001981D
:102BB00000F06FFA019800F08AFA019800F04AFAE2
:102BC00017E02A79DDE9000100F054FA686802286C
:102BD00012D0401C68600198FFF78FF8FFF772FE73
:102BE000042C0BD036F82400012281B21B48FDF7DB
:102BF000A2FE052C09D012E00020EBE7308A01226A
:102C000081B21748FDF797FE09E039460020019A86
:102C1000FFF71AFF424639460020FFF7EDFE1AF88B
:102C2000041059F8240042F299530A4AFEF730FF83
:102C3000FFF748FE1E20FDF733FDFFF743FE641C3F
:102C4000E4B2062C90D3BDE8FE8F000098A00020CF
:102C50003C000020340A0020FCA0002000080140B5
:102C6000001001402DE9F74F674F684D4FF4000AFF
:102C700097F8540005F11C0642F29958022805D035
:102C8000032802D0062804D031E0042087F83C0055
:102C90002DE040F2511421460020019AFFF7D4FEA6
:102CA000524621460020FFF7A7FE00244346295D37
:102CB00056F82400564AFEF7EBFE641CE4B2052CDD
:102CC000F4D34FF47A70FDF7EBFC00F02DF9FFF729
:102CD00083FEFFF771FE00244346295D56F8240069
:102CE0004B4AFEF7D5FE641CE4B2052CF4D3D7E9B9
:102CF0001201411A474A0020914297F8611001D809
:102D000009B914E009B187F8610087F8540097F811
:102D1000570087F86000483700F006F9FFF75CFEBF
:102D200000F0E8F800F03EFA786847F84809B9463C
:102D3000364F00243437B346002240F2911529461D
:102D40001046FFF781FED046524629460020FFF785
:102D500053FE04EB440119F8210020B1012805D0ED
:102D6000022825D10CE0FFF737FE21E0019800F0A2
:102D700090F9019800F0ABF9019800F06BF917E0B9
:102D8000224E083E3279DDE9000100F073F97068E7
:102D9000022810D0401C70600198FEF7AEFF042C92
:102DA0000BD037F82400012281B21B48FDF7C3FD88
:102DB000052C09D012E00020EDE7388A012281B20B
:102DC0001648FDF7B8FD09E029460020019AFFF7F3
:102DD0003BFE424629460020FFF70EFE0B4842F21A
:102DE00099530B4A015D5BF82400FEF751FEFFF793
:102DF00069FD1E20FDF754FCFFF764FD641CE4B27E
:102E0000062C99D3BDE8FE8F98A000203C0000203E
:102E1000340A00207004180000080140001001402E
:102E20000020054A014642F82010401CC0B2042888
:102E3000F9D9024801607047FCA00020340000204E
:102E40002DE9F04F294BC0EBC000DFF8A4C00027EC
:102E500000EB030BC1EBC1061BF807A0012001E04A
:102E600003281DD20021A0F10208C0EBC009CAEB63
:102E7000CA0512E009EB010333442B44ED2B00D9C2
:102E8000EE3B9BB24C4203EB4404A41DA4B24CF8AD
:102E90002320491C4CF82420C9B24145EADD1BE03F
:102EA0004100091FCCB20021C0EBC009C4F10708E2
:102EB00010E009EB010303EB540333442B44ED2BE7
:102EC00000D9EE3B032801D1022901D04CF8232080
:102ED000491CC9B28845ECDC401CC0B20628BFD3EF
:102EE0007F1CFFB2072FB7D3BDE8F08F4200002050
:102EF000F00300201CB509A00A4AD0E90010CDE972
:102F000000100020694600EB40040B5C401CC0B27E
:102F100002F824300528F6D91CBD0000000000008E
:102F20000001000098A000200020144900E006D015
:102F300000EB400301EB8303421C9A7228B100EBC3
:102F4000400301EB8303421E5A72401C40B2042826
:102F5000EDDD4FF0040048724FF0000281F83A2096
:102F6000104600EB400300F10100C0B201F823203D
:102F70000528F6D3886CC8647047000098A000202C
:102F800070B50024314D204600EB400115F82110AA
:102F9000012931D002292FD00021401C2144C0B288
:102FA000CCB20528F0D385F85440002085F85600AF
:102FB000FDF7C6FC0126A8648CB1FFF783FC95F8E9
:102FC0005700234951F8201000293DD000EB400064
:102FD000641C05F8206085F8544000F0E3F895F88B
:102FE0005400062830D0A96C0522B1FBF2F302FB95
:102FF00013110020491C06E00121CEE700EB400040
:1030000005EB8000807A491EC9B2F7D200EB40027E
:1030100005EB82014B7A8C7A03EB430305EB8303C8
:103020009C724B7A897A01EB410105EB81014B726D
:1030300095F8581009B985F8586085F857000220AE
:1030400005F82200A86CE86470BD000098A000207C
:1030500010A1002010B5024640F251142146AF20C5
:10306000FFF7F2FC2146BDE810404FF40002AF200C
:10307000FFF7C2BC13460A4610B501461846FFF7D3
:10308000DFFEAF21BDE810404FF400020020FFF743
:10309000B3BC70B504460246AF210020FFF7D4FC54
:1030A000224640F2911440F2511521462846FFF77E
:1030B000CBFC4FF400263246AF210020FFF79CFCEA
:1030C000324621462846BDE87040FFF795BC70B5F2
:1030D000024640F2911440F2511521462846FFF76E
:1030E000B3FC21462846BDE870404FF40002FFF7CC
:1030F00083BC0000FDF732FCFFF747F9FEF754FEF2
:10310000FEF70CFEFEF706FFFEF752FFFEF786FF06
:10311000FEF7CEFFFFF702F8FFF736F8FEF7C6FE20
:10312000FFF74AFC1E4C207830B1012806D0022857
:1031300014D0032815D004E0FF2001E04FF47F40B5
:103140002061E06878B1022818D001281BD003283C
:10315000E9D121696068FFF73FFBE4E74FF4BE4027
:10316000EEE75F20ECE7FFF7ADFB2079FFF708FF04
:103170002079A2682169FFF773FC0EE0216960687D
:10318000FFF704FBCFE7FFF79DFB2079FFF7F8FE81
:103190002079A2682169FFF765FDFFF793FBC2E77D
:1031A000000000200020044A014642F82010401C84
:1031B000C0B20428F9D9704710A100200000000017
:1031C00000000000010203040607080900000000D7
:1031D00001020304F4310008000000209400000004
:1031E00098290008883200089400002094A5000067
:1031F000A8290008000000000100000002000000F3
:1032000000000000550000000000000C0008000055
:1032100080010020A8000020F000002038010020DC
:10322000C801002010020020000000000000000083
:103230000000000C000800050A0F14191E02070CFC
:1032400011161B2004090E13181D220080010020F6
:10325000F0000020C801002038010020A800002054
:1032600010020020100000002000000040000000BC
:1032700080000000100000000100000010000000AD
:08328000000000000024F4002E
:0400000508000131BD
:00000001FF
